:020000040800F2
:10000000B806002089010008311500081D130008FA
:100010002D1500088F020008491600080000000096
:10002000000000000000000000000000371500087C
:10003000930200080000000035150008391500087B
:10004000A3010008A3010008A3010008A301000800
:10005000A3010008A3010008A3010008A3010008F0
:10006000A3010008A3010008A3010008A3010008E0
:10007000A3010008A3010008A3010008A3010008D0
:10008000A3010008A3010008A3010008A3010008C0
:10009000A3010008A3010008A3010008A3010008B0
:1000A000A3010008A3010008A3010008A3010008A0
:1000B000A3010008A301000800000000A30100083C
:1000C000A30100080000000000000000A3010008D8
:1000D00000000000A3010008A301000800000000C8
:1000E000A3010008A3010008A301000800F002F822
:1000F00000F03AF80AA090E8000C82448344AAF188
:100100000107DA4501D100F02FF8AFF2090EBAE885
:100110000F0013F0010F18BFFB1A43F0010318473B
:100120004418000064180000103A24BF78C878C151
:10013000FAD8520724BF30C830C144BF04680C60ED
:10014000704700000023002400250026103A28BF35
:1001500078C1FBD8520728BF30C148BF0B60704739
:100160001FB51FBD10B510BD00F058F81146FFF7C0
:10017000F7FF01F0CBFB00F076F803B4FFF7F2FFD6
:1001800003BC00F07DF8000009488047094800479B
:10019000FEE7FEE7FEE7FEE7FEE7FEE7FEE7FEE737
:1001A000FEE7FEE704480549054A064B7047000094
:1001B00041150008ED000008B8000020B806002036
:1001C000B8020020B80200204FF0000200B513462C
:1001D00094469646203922BFA0E80C50A0E80C5067
:1001E000B1F12001BFF4F7AF090728BFA0E80C5018
:1001F00048BF0CC05DF804EB890028BF40F8042B11
:1002000008BF704748BF20F8022B11F0804F18BF7D
:1002100000F8012B7047704770477047754600F033
:100220002BF8AE4605006946534620F00700854688
:1002300018B020B5FFF7B6FFBDE820404FF000062C
:100240004FF000074FF000084FF0000B21F00701BE
:10025000AC46ACE8C009ACE8C009ACE8C009ACE801
:10026000C0098D46704710B50446AFF300802046A4
:10027000BDE81040FFF781BF0048704758000020DC
:1002800001491820ABBEFEE726000200704700BF00
:10029000FEE7704772B600BFFEE7000070B5044687
:1002A00000F0A4F906462546681C10B10448007801
:1002B000054400BF00F09AF9801BA842FAD370BD34
:1002C000080000202DE9F84703460022944666E125
:1002D0004FF0010808FA02F4D1F8008008EA04009F
:1002E000A0427DD1DFF8CCA2D1F80480A8EB0A09A6
:1002F000D0453AD014DCB8F1030F50D009DCB8F186
:10030000000F31D0B8F1010F1CD0B8F1020F49D164
:1003100020E0B8F1110F18D0B8F1120F42D11EE051
:10032000B9F5881F25D006DCB9F5803F20D0B9F596
:10033000801F37D11AE0B9F5001F18D0B9F5041F96
:1003400030D117E0D1F80CC02DE0D1F80C8008F1C5
:10035000040C28E0D1F80C8008F1080C23E0D1F857
:100360000C8008F10C0C1EE000BF00BF00BF00BFF6
:1003700000BF00BFD1F80880B8F1000F02D14FF0E4
:10038000040C0BE0D1F80880B8F1010F03D14FF055
:10039000080C1C6102E04FF0080C5C6103E04FF0B8
:1003A000000C00E000BF00BFFF2801D8984601E024
:1003B00003F104084646FF2802D84FEA820803E00A
:1003C000A2F108084FEA88084746D6F800804FF0A7
:1003D0000F0909FA07F928EA09080CFA07F900E0F9
:1003E00085E048EA0908C6F80080D1F8048008F0E2
:1003F0008058B8F1805F7AD100BFDFF8BC81D8F8AF
:10040000188048F00108DFF8B091C9F81880C84694
:10041000D8F8188008F00108CDF8008000BF00BFB0
:100420004FEAB9384FEA920958F829504FEA8278D2
:100430004FEA18794FF00F0808FA09F825EA08057D
:10044000DFF87881434502D14FF000080FE0DFF874
:100450007081434502D14FF0010808E0DFF8648164
:10046000434502D14FF0020801E04FF003084FEA84
:1004700082794FEA197908FA09F848EA0505DFF8A0
:1004800048814FEA920948F82950D1F8048008F4CD
:100490008018B8F5801F0AD1DFF83081D8F80080C5
:1004A00048EA0008DFF82491C9F8008009E0DFF885
:1004B0001C81D8F8008028EA0008DFF81091C9F8FC
:1004C0000080D1F8048008F40018B8F5001F0FD19F
:1004D000DFF8F88008F10408D8F8008048EA00083E
:1004E000DFF8E89009F10409C9F800800EE055E052
:1004F000DFF8D88008F10408D8F8008028EA00085E
:10050000DFF8C89009F10409C9F80080D1F8048027
:1005100008F40038B8F5003F0ED1DFF8B080A8F13C
:100520000408D8F8008048EA0008DFF8A090A9F194
:100530000409C9F800800DE0DFF89080A8F10408F4
:10054000D8F8008028EA0008DFF88090A9F10409B3
:10055000C9F80080D1F8048008F48038B8F5803FED
:100560000ED1DFF86880A8F10808D8F8008048EAC2
:100570000008DFF85890A9F10809C9F800800DE0DB
:10058000DFF84880A8F10808D8F8008028EA0008B9
:10059000DFF83890A9F10809C9F80080521CD1F899
:1005A000008028FA02F8B8F1000F7FF491AEBDE8A0
:1005B000F887000000001110001002400008014000
:1005C000000C0140001001400800014008040140F7
:1005D000024693680B400BB1012000E000207047F9
:1005E0000AB1016101E00B04036170470148006832
:1005F00070470000000000200348006803490978A4
:1006000008440149086070470000002008000020ED
:1006100010B50848006840F0100006490860032043
:1006200000F08EF80F2000F007F800F02BF8002003
:1006300010BD00000020024070B504460E4800784E
:100640004FF47A71B1FBF0F00C490968B1FBF0F599
:10065000284600F0B9FB08B1012070BD102C07D26C
:1006600000222146501E00F02DF80548046001E0EC
:100670000120F2E70020F0E7080000200C00002035
:100680000400002008B500BF0D48806940F001005B
:100690000B4988610846806900F00100009000BFA6
:1006A00000BF00BF0846C06940F08050C8610846DE
:1006B000C06900F08050009000BF00BF08BD00007E
:1006C000001002402DE9F05F80460D4616460027D7
:1006D00001F014F9074639462A46334601F007006F
:1006E000C0F1070ABAF1040F02D94FF0040A01E081
:1006F000C0F1070AD14600F1040ABAF1070F02D28D
:100700004FF0000A01E0A0F1030AD4464FF0010ABD
:100710000AFA09FAAAF1010A0AEA020A0AFA0CFA22
:100720004FF0010B0BFA0CFBABF1010B0BEA030BC7
:100730004AEA0B042146404601F0CCF8BDE8F09FA0
:1007400000BF00F00702064B19684FF6FF0319407F
:10075000044B0B4343EA0221014B196000BF704771
:100760000CED00E00000FA0570B504460D460CB92A
:10077000012070BD5A48006800F00700A8420ED260
:100780005748006820F0070028435549086008468C
:10079000006800F00700A84201D00120E9E72078B6
:1007A00000F0020002281DD1207800F00400042887
:1007B00005D14C48406840F4E0604A4948602078E0
:1007C00000F00800082805D14648406840F4605011
:1007D000444948604348406820F0F000A16808435D
:1007E00040494860207800F0010078B36068012833
:1007F00006D13C48006800F4003090B90120B8E709
:100800006068022806D13748006800F0007040B9DF
:100810000120AEE73348006800F0020008B901206B
:10082000A7E73048406820F00300616808432D497D
:100830004860FFF7DBFE064609E0FFF7D7FE801BA6
:1008400041F28831884202D9032092E707E0254827
:10085000406800F00C006168B0EB810FEDD12048DA
:10086000006800F00700A8420ED91D48006820F07B
:10087000070028431A4908600846006800F007008E
:10088000A84201D0012074E7207800F00400042879
:1008900007D11448406820F4E060E168084311493A
:1008A0004860207800F00800082808D10D4840680A
:1008B00020F46050216940EAC1000A49486000F014
:1008C00019F808494968C1F30311074A515CC84047
:1008D0000649086006480068FFF7AEFE002048E7BA
:1008E00000200240001002404A1900080C000020BD
:1008F0000400002070B50021002200240023002005
:10090000134D696801F00C05EDB1042D02D0082DDE
:100910001AD101E00F4819E00F4DC1F38346AB5DDA
:1009200001F4803555B10A4D6D68C5F340450B4E55
:10093000725D084D5D43B5FBF2F402E0084D03FB28
:1009400005F4204602E000BF024800BF00BF70BDB2
:100950000010024000127A003819000848190008F7
:1009600000093D00F8B504460CB90120F8BD207817
:1009700000F00100002878D0F848406800F00C0032
:1009800004280CD0F548406800F00C00082811D16C
:10099000F248406800F48030B0F5803F0AD1EF485B
:1009A000006800F4003000285FD0606800285CD147
:1009B0000120DBE700BF6068B0F5803F06D1E74863
:1009C000006840F48030E549086028E0606858B964
:1009D000E248006820F48030E0490860084600687A
:1009E00020F4802008601AE06068B0F5A02F0BD1D9
:1009F000DA48006840F48020D8490860084600685A
:100A000040F4803008600AE0D448006820F4803068
:100A1000D24908600846006820F48020086000BFC2
:100A2000606888B1FFF7E2FD054606E0FFF7DEFDEE
:100A3000401B642801D9032098E7C848006800F4E7
:100A400000300028F2D010E0FFF7D0FD054606E0A8
:100A5000FFF7CCFD401B642801D9032086E7BF487F
:100A6000006800F400300028F2D1207800F0020085
:100A7000022857D1B948406800F00C0050B1B7487F
:100A8000406800F00C00082818D1B448406800F411
:100A9000803098B9B148006800F0020020B12069A8
:100AA000012801D0012061E7AC48006820F0F8007F
:100AB000616940EAC100A949086033E02069E8B1F2
:100AC0000120A7490860FFF791FD054606E0FFF702
:100AD0008DFD401B022801D9032047E79F4800688D
:100AE00000F002000028F2D09C48006820F0F800D6
:100AF000616940EAC1009949086013E00020984903
:100B00000860FFF773FD054606E0FFF76FFD401B29
:100B1000022801D9032029E79048006800F002006C
:100B20000028F2D1207800F0080008282DD1A06913
:100B3000B8B101208B490860FFF758FD054606E073
:100B4000FFF754FD401B022801D903200EE783481C
:100B5000406A00F002000028F2D0012000F0EEFD13
:100B600013E000207F490860FFF740FD054606E0DE
:100B7000FFF73CFD401B022801D90320F6E6774829
:100B8000406A00F002000028F2D1207800F0040052
:100B9000042873D100277148C06900F0805070B9F3
:100BA00000BF6E48C06940F080506C49C86108467B
:100BB000C06900F08050009000BF00BF01276A4864
:100BC000006800F48070B0B96748006840F4807035
:100BD00065490860FFF70AFD054606E0FFF706FDD8
:100BE000401B642801D90320C0E65F48006800F478
:100BF00080700028F2D000BFE068012806D1574875
:100C0000006A40F001005549086227E0E06858B9E1
:100C10005248006A20F00100504908620846006A04
:100C200020F00400086219E0E06805280BD14B4869
:100C3000006A40F00400494908620846006A40F032
:100C4000010008620AE04548006A20F001004349BB
:100C500008620846006A20F00400086200BFE068ED
:100C6000A0B1FFF7C3FC054609E0FFF7BFFC401B3E
:100C700041F28831884202D9032077E622E03748E2
:100C8000006A00F002000028EFD012E0FFF7AEFC8F
:100C9000054608E0FFF7AAFC401B41F28831884274
:100CA00001D9032062E62D48006A00F00200002806
:100CB000F0D1012F05D12948C06920F08050274983
:100CC000C86100BFE069C8B32448406800F00C0068
:100CD000082860D0E069022848D100202049086631
:100CE000FFF784FC054606E0FFF780FC401B022866
:100CF00001D903203AE61948006800F00070002886
:100D0000F2D1206AB0F5803F07D11448406820F442
:100D10000030A168084311494860D4E9080108433C
:100D20000E49496821F4741108430C4948600120B8
:100D30000B490866FFF75AFC054607E03DE0FFF760
:100D400055FC401B022801D903200FE60348006828
:100D500000F000700028F2D02FE0000000100240E8
:100D600000004242800442420070004000201449CA
:100D70000866FFF73BFC054606E0FFF737FC401B23
:100D8000022801D90320F1E50E48006800F0007048
:100D90000028F2D111E0E069012800D1E6E5094818
:100DA000466806F48031206A814204D106F470114D
:100DB000606A814201D00120D8E50020D6E500001C
:100DC000000042420010024070B504462546681EED
:100DD000B0F1807F01D301200FE0681E4FF0E021C9
:100DE00048610F214FF0FF3000F074FD00204FF0FC
:100DF000E021886107200861002070BD10B503461E
:100E0000002200BF93F83C00012801D1022010BD50
:100E1000012083F83C0000BF22F0FF00CC6840EACC
:100E2000040222F440708C6840EA040222F48060DC
:100E30004C6840EA040222F400600C6840EA0402B4
:100E400022F480500C6940EA040222F400504C69FC
:100E500040EA040222F48040CC6940EA04021868A7
:100E6000426400BF002083F83C0000BF00BFCEE713
:100E700030B502460B4600BF92F83C00012801D174
:100E8000022030BD012082F83C0000BF022082F821
:100E90003D00106844681068816824F07004186888
:100EA0000443106844600E4D1068A84207D01068D3
:100EB000B0F1804F03D00B4D1068A84205D121F04E
:100EC00080015868014310688160012082F83D006C
:100ED00000BF002082F83C0000BF00BFD1E7000047
:100EE000002C01400004004010B504460CB901205C
:100EF00010BD94F83D0028B9002084F83C0020463D
:100F000000F026F8022084F83D00211D206800F042
:100F100019FB012084F8460000BF84F83E0001213F
:100F20003F200155402001554120015500BF00BF21
:100F3000012084F8420043200155442001554520FA
:100F4000015500BF012084F83D000020D0E70000DB
:100F500008B5094A016891420DD100BF0749896966
:100F600041F40061054A91611146896901F400610B
:100F7000009100BF00BF08BD002C014000100240DE
:100F80002DE9F04104460D46002700BF94F83C00CF
:100F9000012802D10220BDE8F081012084F83C0044
:100FA00000BF022084F83D002068866826F077069E
:100FB00026F47F46206886602868502833D00CDCF1
:100FC000202850D004DC00284BD0102851D149E013
:100FD000302849D040284CD139E060282DD07028E5
:100FE00007D0B0F5805F03D0B0F5005F41D10DE0D0
:100FF00041E0D5E902136A68206800F0E6FA20684B
:10100000866846F077062068866034E0D5E90213EA
:101010006A68206800F0D9FA2068806840F480404F
:101020002168886027E0EA686968206800F02BFC86
:101030005021206800F01EFC1DE0EA686968206805
:1010400000F034FC6021206800F014FC13E0EA6832
:101050006968206800F017FC4021206800F00AFC55
:1010600009E000BF00BF00BF2968206800F002FC53
:1010700001E0012700BF00BF012084F83D0000BF50
:10108000002084F83C0000BF384684E710B586B0E5
:101090000446002002900390049005900F492068B8
:1010A000884218D100BF0E48806940F004000C4906
:1010B00088610846806900F00400019000BF00BF0D
:1010C0004FF440600290022003900320059002A993
:1010D0000448FFF7F7F806B010BD0000002C0140EF
:1010E00000100240000801402DE9F04104460D4681
:1010F0001646002700BF94F83C00012802D10220C8
:10110000BDE8F081012084F83C0000BF36B1042E18
:101110001BD0082E31D00C2E5ED145E02946206828
:1011200000F020FB2068806940F008002168886199
:101130002068806920F00400216888612068806947
:10114000296908432168886148E02946206800F041
:1011500047FA2068806940F400602168886120684F
:10116000806920F48060216888612068806929692D
:1011700040EA01202168886130E02946206800F0BB
:1011800021FB2068C06940F008002168C861206820
:10119000C06920F004002168C8612068C06929691D
:1011A00008432168C86119E02946206800F03EFB29
:1011B0002068C06940F400602168C8612068C06987
:1011C00020F480602168C8612068C069296940EA0C
:1011D00001202168C86101E0012700BF00BF00BFF6
:1011E000002084F83C0000BF384689E710B504466B
:1011F0000CB9012010BD94F83D0028B9002084F8F6
:101200003C00204600F025F8022084F83D00211D16
:10121000206800F097F9012084F8460000BF84F8A8
:101220003E0001213F20015540200155412001553C
:1012300000BF00BF012084F8420043200155442034
:1012400001554520015500BF012084F83D000020D4
:10125000D0E7704770B504460D4615B994F83E00C6
:101260000BE0042D02D13F20005D06E0082D02D1E5
:101270004020005D01E04120005D012801D00120F7
:1012800070BD1DB9022084F83E000EE0042D03D18C
:1012900002213F20015508E0082D03D10221402002
:1012A000015502E002214120015501222946206812
:1012B00000F07AF917492068884201D1012000E046
:1012C000002028B12068406C40F400402168486448
:1012D00010492068884207D02068B0F1804F03D0C1
:1012E0000D49206888420CD12068806800F007060C
:1012F000062E0CD02068006840F0010021680860CC
:1013000005E02068006840F00100216808600020C6
:10131000B6E70000002C01400004004000BFFEE7DB
:1013200000B585B00020019002900390049000BFAA
:101330004048806940F010003E4988610846806955
:1013400000F01000009000BF00BF00BF0846806999
:1013500040F0200088610846806900F0200000907D
:1013600000BF00BF00BF0846806940F004008861EC
:101370000846806900F00400009000BF00BF00BF75
:101380000846806940F0080088610846806900F0DE
:101390000800009000BF00BF012251032648FFF75C
:1013A0001FF900224FF400512448FFF719F90122D8
:1013B00091032248FFF714F900224FF4807120486E
:1013C000FFF70EF9012251021D48FFF709F94FF40A
:1013D0000050019001200290002003900220049010
:1013E00001A91548FEF76EFF7820019000200290B9
:1013F000039001A91248FEF765FF4FF4C040019029
:1014000001200290002003900220049001A90B48C3
:10141000FEF758FF4FF44070019001200290002029
:1014200003900220049001A90548FEF74BFF05B088
:1014300000BD00000010024000100140000C0140FF
:101440000008014000B595B0002011901290139053
:1014500014900F9010901C2108A8FEF7B5FE2021D3
:101460006846FEF7B1FE2F482F49086047204860C4
:1014700000212D48816040F2F311C160002101611B
:1014800041618161FFF730FD08B1FEF703FF4FF4C2
:101490008050119011A92448FFF772FD08B1FEF7A2
:1014A000F9FE2148FFF7A2FE08B1FEF7F3FE002087
:1014B0000F9010900FA91C48FFF7DAFC08B1FEF757
:1014C000E9FE60200890002009900A900B900C9093
:1014D0000D900E90082208A91348FFF705FE08B1E9
:1014E000FEF7D8FE0C2208A90F48FFF7FDFD08B152
:1014F000FEF7D0FE0020009001900290039004902F
:101500004FF4005005900020079069460648FFF709
:1015100075FC08B1FEF7BEFE0348FFF7B7FD15B036
:1015200000BD0000002C01401000002000BFFEE7BD
:1015300000BFFEE77047704710B5FFF75DF810BDBC
:101540007047000010B50268154B984205D0B0F105
:10155000804F02D0134B984203D122F070024B68A7
:101560001A430F4B984205D0B0F1804F02D00D4B7B
:10157000984203D122F44072CB681A4322F08003D0
:101580004C6943EA040202608B68C3620B688362A1
:10159000034B984201D10B6903630123436110BDE2
:1015A000002C01400004004030B501F01F0501246B
:1015B00004FA05F3046A9C430462046A01F01F05FF
:1015C00002FA05F52C43046230BD30B50C46816843
:1015D00021F47F4142EA032525432943816030BD40
:1015E00030B5026A056A25F0100505624368846912
:1015F00024F4E04424F440740D6844EA052422F005
:1016000020028D6842EA05120E4DA84207D100BFA4
:1016100022F08002CD6842EA051222F04002094D14
:10162000A84209D123F4806323F400634D6943EA9F
:1016300085038D6943EA8503436084614D68856352
:10164000026230BD002C014000BFFEE700B58FB044
:10165000282105A8FEF7B8FD14216846FEF7B4FD61
:1016600001200590000406900020079001200990B9
:1016700002200C90C1030D914FF4E0110E9105A8CA
:10168000FFF770F908B1FEF705FE0F200090022069
:101690000190002002904FF480600390002004909D
:1016A00002216846FFF760F808B1FEF7F3FD0FB0BE
:1016B00000BD000010B5002408211E48FEF788FF79
:1016C000012808D100BF1C480068C4634FF4AF7400
:1016D00019480068046440211648FEF779FF012884
:1016E00008D14FF4AF7414480068C4630024124852
:1016F0000068046410210F48FEF76AFF012807D133
:1017000000240D480068C46396240B4800680464F4
:1017100020210848FEF75CFF012807D196240648DF
:101720000068C46300240448006804640120FEF7D4
:10173000B5FD10BD000801401000002008B50849A3
:101740000968C9084FF47A72B1FBF2F14143009184
:1017500000BF00BF00994A1E00920029F9D108BDC0
:101760000C00002030B5026A056A25F0010505620B
:101770004368846924F0700424F003040D682C434A
:1017800022F002028D682A430D4DA84206D100BF07
:1017900022F00802CD682A4322F00402084DA84234
:1017A00007D123F4807323F400734D692B438D69B3
:1017B0002B43436084614D684563026230BD000085
:1017C000002C014030B5026A056A25F48075056277
:1017D0004368C46924F0700424F003040D682C43AA
:1017E00022F400728D6842EA05220F4DA84207D10B
:1017F00000BF22F40062CD6842EA052222F4806232
:10180000094DA84209D123F4805323F400534D69B4
:1018100043EA05138D6943EA05134360C4614D68CB
:10182000C563026230BD0000002C014030B5036A80
:10183000056A25F4805505624468C26922F4E042D5
:1018400022F440720D6842EA052223F400538D68A9
:1018500043EA0533064DA84204D124F480444D697F
:1018600044EA85144460C2614D680564036230BD7A
:10187000002C01400A46816821F0700142F0070304
:1018800019438160704730B50B461446026A056AF9
:1018900025F001050562816921F0F00141EA04119A
:1018A00022F00A021A438161026230BD30B50B4654
:1018B0001446026A056A25F010050562816921F463
:1018C000704141EA043122F0A00242EA0312816130
:1018D000026230BD10B5002804DB0A07130E054A6A
:1018E000135406E00A07140E034A00F00F031B1FEF
:1018F000D45410BD00E400E018ED00E00248006898
:10190000C0F30220704700000CED00E0FEF780FEFF
:10191000FFF79CFEFFF704FDFFF794FD0821054843
:10192000FFF798FC0C210348FFF794FC01E0FFF758
:10193000C1FEFCE7100000200203040506070809A9
:101940000A0B0C0D0E0F1010010200000000000029
:10195000000001020304060708090000000001025C
:10196000030400008419000800000020100000009B
:10197000280100089419000810000020A8060000A3
:1019800044010008000000001000000001000000F9
:041990000024F4003B
:04000005080000ED02
:00000001FF
